{"abi":[{"type":"constructor","inputs":[{"name":"htlc","type":"address","internalType":"address"},{"name":"permit2","type":"address","internalType":"address"}],"stateMutability":"nonpayable"},{"type":"receive","stateMutability":"payable"},{"type":"function","name":"DOMAIN_SEPARATOR","inputs":[],"outputs":[{"name":"","type":"bytes32","internalType":"bytes32"}],"stateMutability":"view"},{"type":"function","name":"HTLC","inputs":[],"outputs":[{"name":"","type":"address","internalType":"contract HTLCErc20"}],"stateMutability":"view"},{"type":"function","name":"PERMIT2","inputs":[],"outputs":[{"name":"","type":"address","internalType":"contract ISignatureTransfer"}],"stateMutability":"view"},{"type":"function","name":"TYPEHASH_COLLAB_REFUND","inputs":[],"outputs":[{"name":"","type":"bytes32","internalType":"bytes32"}],"stateMutability":"view"},{"type":"function","name":"TYPEHASH_EXECUTE_AND_CREATE","inputs":[],"outputs":[{"name":"","type":"bytes32","internalType":"bytes32"}],"stateMutability":"view"},{"type":"function","name":"TYPESTRING_EXECUTE_AND_CREATE","inputs":[],"outputs":[{"name":"","type":"string","internalType":"string"}],"stateMutability":"view"},{"type":"function","name":"VERSION","inputs":[],"outputs":[{"name":"","type":"uint8","internalType":"uint8"}],"stateMutability":"view"},{"type":"function","name":"collabRefundAndExecute","inputs":[{"name":"preimageHash","type":"bytes32","internalType":"bytes32"},{"name":"amount","type":"uint256","internalType":"uint256"},{"name":"token","type":"address","internalType":"address"},{"name":"claimAddress","type":"address","internalType":"address"},{"name":"timelock","type":"uint256","internalType":"uint256"},{"name":"calls","type":"tuple[]","internalType":"struct HTLCCoordinator.Call[]","components":[{"name":"target","type":"address","internalType":"address"},{"name":"value","type":"uint256","internalType":"uint256"},{"name":"callData","type":"bytes","internalType":"bytes"}]},{"name":"sweepToken","type":"address","internalType":"address"},{"name":"minAmountOut","type":"uint256","internalType":"uint256"},{"name":"depositorV","type":"uint8","internalType":"uint8"},{"name":"depositorR","type":"bytes32","internalType":"bytes32"},{"name":"depositorS","type":"bytes32","internalType":"bytes32"},{"name":"claimV","type":"uint8","internalType":"uint8"},{"name":"claimR","type":"bytes32","internalType":"bytes32"},{"name":"claimS","type":"bytes32","internalType":"bytes32"}],"outputs":[],"stateMutability":"nonpayable"},{"type":"function","name":"deposits","inputs":[{"name":"","type":"bytes32","internalType":"bytes32"}],"outputs":[{"name":"","type":"address","internalType":"address"}],"stateMutability":"view"},{"type":"function","name":"executeAndCreateWithPermit2","inputs":[{"name":"calls","type":"tuple[]","internalType":"struct HTLCCoordinator.Call[]","components":[{"name":"target","type":"address","internalType":"address"},{"name":"value","type":"uint256","internalType":"uint256"},{"name":"callData","type":"bytes","internalType":"bytes"}]},{"name":"preimageHash","type":"bytes32","internalType":"bytes32"},{"name":"token","type":"address","internalType":"address"},{"name":"claimAddress","type":"address","internalType":"address"},{"name":"timelock","type":"uint256","internalType":"uint256"},{"name":"depositor","type":"address","internalType":"address"},{"name":"permit","type":"tuple","internalType":"struct ISignatureTransfer.PermitTransferFrom","components":[{"name":"permitted","type":"tuple","internalType":"struct ISignatureTransfer.TokenPermissions","components":[{"name":"token","type":"address","internalType":"address"},{"name":"amount","type":"uint256","internalType":"uint256"}]},{"name":"nonce","type":"uint256","internalType":"uint256"},{"name":"deadline","type":"uint256","internalType":"uint256"}]},{"name":"signature","type":"bytes","internalType":"bytes"}],"outputs":[],"stateMutability":"nonpayable"},{"type":"function","name":"redeemAndExecute","inputs":[{"name":"preimage","type":"bytes32","internalType":"bytes32"},{"name":"amount","type":"uint256","internalType":"uint256"},{"name":"token","type":"address","internalType":"address"},{"name":"htlcSender","type":"address","internalType":"address"},{"name":"timelock","type":"uint256","internalType":"uint256"},{"name":"calls","type":"tuple[]","internalType":"struct HTLCCoordinator.Call[]","components":[{"name":"target","type":"address","internalType":"address"},{"name":"value","type":"uint256","internalType":"uint256"},{"name":"callData","type":"bytes","internalType":"bytes"}]},{"name":"sweepToken","type":"address","internalType":"address"},{"name":"minAmountOut","type":"uint256","internalType":"uint256"},{"name":"destination","type":"address","internalType":"address"},{"name":"v","type":"uint8","internalType":"uint8"},{"name":"r","type":"bytes32","internalType":"bytes32"},{"name":"s","type":"bytes32","internalType":"bytes32"}],"outputs":[],"stateMutability":"payable"},{"type":"function","name":"refundAndExecute","inputs":[{"name":"preimageHash","type":"bytes32","internalType":"bytes32"},{"name":"amount","type":"uint256","internalType":"uint256"},{"name":"token","type":"address","internalType":"address"},{"name":"claimAddress","type":"address","internalType":"address"},{"name":"timelock","type":"uint256","internalType":"uint256"},{"name":"calls","type":"tuple[]","internalType":"struct HTLCCoordinator.Call[]","components":[{"name":"target","type":"address","internalType":"address"},{"name":"value","type":"uint256","internalType":"uint256"},{"name":"callData","type":"bytes","internalType":"bytes"}]},{"name":"sweepToken","type":"address","internalType":"address"},{"name":"minAmountOut","type":"uint256","internalType":"uint256"}],"outputs":[],"stateMutability":"nonpayable"},{"type":"function","name":"refundTo","inputs":[{"name":"preimageHash","type":"bytes32","internalType":"bytes32"},{"name":"amount","type":"uint256","internalType":"uint256"},{"name":"token","type":"address","internalType":"address"},{"name":"claimAddress","type":"address","internalType":"address"},{"name":"timelock","type":"uint256","internalType":"uint256"}],"outputs":[],"stateMutability":"nonpayable"},{"type":"error","name":"Reentrancy","inputs":[]},{"type":"error","name":"SafeERC20FailedOperation","inputs":[{"name":"token","type":"address","internalType":"address"}]}],"bytecode":{"object":"0x60e034620001c4576001600160401b0390601f62001cb138819003918201601f191683019184831184841017620001b0578084926040948552833981010312620001c4576200005c60206200005483620001c8565b9201620001c8565b60405160208101907f8b73c3c69bb8fe3d512ecc4cf759cc79239f7b179b0ffacaa9a75d522b39400f82527fd61e6aa007f7b765a1cb9226c137c3d79a8a23eb0056dc57f63babcebfc0a6e860408201527f2a80e1ef1d7842f27f2e6be0972bb708b9a135c38860dbe73c27c3486c34f4de60608201524660808201523060a082015260a0815260c081019481861090861117620001b05760408590525190206080526001600160a01b0391821660a0521660c052611ad39081620001de8239608051818181610c580152610e44015260a0518181816101d8015281816102fb0152818161037b015281816103f10152818161081201528181610873015281816108e90152818161094e01528181610a1801528181610b5f01528181610d1c01528181610f58015281816110b5015261168e015260c0518181816106910152818161077501528181610bdf015261187a0152f35b634e487b7160e01b5f52604160045260245ffd5b5f80fd5b51906001600160a01b0382168203620001c45756fe608080604052600436101561001c575b50361561001a575f80fd5b005b5f905f3560e01c9081632924083714611067575080632c1b9d7c14610c7b5780633644e51514610c405780633d4dff7b14610c0e5780636afdd85014610bc95780636ecd910814610b8e5780636f28f31d14610b495780637068967c14610b0e578063750e3d3c146105395780639643cc3614610505578063bc61d4e714610276578063ee2837cf146100d15763ffa1ad740361000f57346100ce57806003193601126100ce57602060405160038152f35b80fd5b506101803660031901126100ce576100e76111df565b6100ef6111f5565b60a4356001600160401b0381116102725761010e903690600401611221565b61011661120b565b92610104356001600160a01b038116900361026e57610124359060ff8216820361026e57865c610261579060ff916001885d6101528486611512565b60405163a2aa3de160e01b8152600480359082015260248035908201526001600160a01b039889166044820152918816606483015260848035908301526101048035891660a484015287891660c484015260e4803590840152820152911661012482015261014480359082015261016480359082015293602090859061018490829089907f0000000000000000000000000000000000000000000000000000000000000000165af1918215610256576102219461021493610227575b50611684565b60e43590610104356118ad565b80805d80f35b6102489060203d60201161024f575b610240818361127f565b81019061147d565b505f61020e565b503d610236565b6040513d87823e3d90fd5b6337ed32e887526004601cfd5b5f80fd5b8380fd5b50346100ce576101003660031901126100ce576102916111df565b6102996111f5565b60a4356001600160401b038111610272576102b8903690600401611221565b92906102c261120b565b91855c6104f8576001865d6040516372043def60e01b815290602082806102f7608435893087602435600480359088016113f8565b03817f00000000000000000000000000000000000000000000000000000000000000006001600160a01b03165afa9182156104ed5787926104b9575b50818752602087905260408720546001600160a01b031694610356861515611431565b8533036104745791875260208790526040872080546001600160a01b031916905586917f00000000000000000000000000000000000000000000000000000000000000006001600160a01b03163b1561047057604051633650472160e01b8152600480359082015260248035908201526001600160a01b03928316604482015291166064820152608480359082015281818060a481010381837f00000000000000000000000000000000000000000000000000000000000000006001600160a01b03165af180156104655761044d575b5050836102219461043d575b505060e435916118ad565b61044691611684565b5f80610432565b61045690611251565b61046157845f610426565b8480fd5b6040513d84823e3d90fd5b8280fd5b60405162461bcd60e51b815260206004820152601960248201527f436f6f7264696e61746f723a20756e617574686f72697a6564000000000000006044820152606490fd5b9091506020813d6020116104e5575b816104d56020938361127f565b8101031261026e5751905f610333565b3d91506104c8565b6040513d89823e3d90fd5b6337ed32e886526004601cfd5b50346100ce57806003193601126100ce576105356105216112a0565b6040519182916020835260208301906113ba565b0390f35b50346100ce576101603660031901126100ce576004356001600160401b038111610b0a5761056b903690600401611221565b906105746111df565b9061057d6111f5565b60a435939091906001600160a01b038516850361026e5760803660c3190112610af2576001600160401b036101443511610af25736602361014435011215610af2576001600160401b03610144356004013511610af257366024610144356004013561014435010111610af257855c6104f8576001865d6105fe8183611512565b604051907f01f068030ecb4faa4fc19679afdcbe9c2619d263df5345b2b316a22b6ac0a3468252602435602083015285604083015284606083015230608083015260843560a083015260c082015260e0812060e082016101208301106001600160401b0361012084011117610af657816101208993016040523060e082015260e43561010082015261068e6112a0565b907f00000000000000000000000000000000000000000000000000000000000000006001600160a01b03163b15610272576040516309be14ff60e11b8152928492849283926107709261075091610140908f906001600160a01b036106f161120b565b16600489015260e4803560248a0152610104803560448b0152610124803560648c015260e08901516001600160a01b0390811660848d0152610100999099015160a48c01529790931660c48a01528801528601526101448501906113ba565b9060031984830301908401526101443560040135602461014435016114f2565b0381837f00000000000000000000000000000000000000000000000000000000000000006001600160a01b03165af1801561046557610ade575b50506107b591611684565b6040516370a0823160e01b8152306004820152906020826024816001600160a01b0387165afa918215610256578592610aaa575b506107f582151561149c565b60405163095ea7b360e01b60208083019182526001600160a01b037f00000000000000000000000000000000000000000000000000000000000000001660248401526044808401869052835290879061084f60648561127f565b835190826001600160a01b0389165af186513d82610a85575b505015610a06575b507f00000000000000000000000000000000000000000000000000000000000000006001600160a01b03163b156104615760405163b3fa9a1360e01b815260248035600483015281018390526001600160a01b038085166044830152821660648201526084803590820152859081818060a481010381837f00000000000000000000000000000000000000000000000000000000000000006001600160a01b03165af18015610465576109f2575b505060209161094a60405194859384936372043def60e01b8552608435923091602435600488016113f8565b03817f00000000000000000000000000000000000000000000000000000000000000006001600160a01b03165afa9081156109e75783916109b5575b50825260208290526040822080546001600160a01b0319166001600160a01b0390921691909117905580805d80f35b90506020813d6020116109df575b816109d06020938361127f565b8101031261026e57515f610986565b3d91506109c3565b6040513d85823e3d90fd5b6109fb90611251565b61046157845f61091e565b60405163095ea7b360e01b60208201527f00000000000000000000000000000000000000000000000000000000000000006001600160a01b0316602482015260448082018890528152610a7f9190610a7090610a6181611264565b6001600160a01b038716611a43565b6001600160a01b038516611a43565b5f610870565b909150610aa257506001600160a01b0384163b15155b5f80610868565b600114610a9b565b9091506020813d602011610ad6575b81610ac66020938361127f565b8101031261026e5751905f6107e9565b3d9150610ab9565b610ae790611251565b610af257855f6107aa565b8580fd5b634e487b7160e01b5f52604160045260245ffd5b5080fd5b50346100ce57806003193601126100ce5760206040517f01f068030ecb4faa4fc19679afdcbe9c2619d263df5345b2b316a22b6ac0a3468152f35b50346100ce57806003193601126100ce576040517f00000000000000000000000000000000000000000000000000000000000000006001600160a01b03168152602090f35b50346100ce57806003193601126100ce5760206040517f8ccec3a6de1ce289ae59477cae22360d9f468f1d9c6232caf98ce744c2c722e68152f35b50346100ce57806003193601126100ce576040517f00000000000000000000000000000000000000000000000000000000000000006001600160a01b03168152602090f35b50346100ce5760203660031901126100ce576020906004358152808252604060018060a01b0391205416604051908152f35b50346100ce57806003193601126100ce5760206040517f00000000000000000000000000000000000000000000000000000000000000008152f35b50346100ce576101c03660031901126100ce57610c966111df565b610c9e6111f5565b60a4356001600160401b03811161027257610cbd903690600401611221565b90610cc661120b565b91610104359360ff8516850361026e576101643560ff8116810361026e57875c61105a576001885d6040516372043def60e01b81529160208380610d1860843585308e602435600480359088016113f8565b03817f00000000000000000000000000000000000000000000000000000000000000006001600160a01b03165afa92831561104f57899361101b575b50828952602089905260408920546001600160a01b031696610d77881515611431565b610d818587611512565b604080517f8ccec3a6de1ce289ae59477cae22360d9f468f1d9c6232caf98ce744c2c722e660208201526004359181019190915260243560608201526001600160a01b038b8116608083015293841660a082015260843560c08201523360e082015292881661010084015260e4356101208401526101408084019190915282526001600160401b03610160830190811190831117610af65760808a9160ff84610160602096016040526101608151878301209161018081019261190160f01b84527f00000000000000000000000000000000000000000000000000000000000000006101828301526101a2820152604282820152610e80828201611264565b0151902091604051928352168482015261012435604082015261014435606082015282805260015afa156104ed5787516001600160a01b0316869003610fc5579087526020878152604080892080546001600160a01b031916905551635d8a7b2b60e11b8152600480359082015260248035908201526001600160a01b039788166044820152306064820152608480359082015260a4810187905285881660c482015260e480359082015260ff909216610104830152610184356101248301526101a435610144830152909586906101649082908a907f0000000000000000000000000000000000000000000000000000000000000000165af1948515610fba5761022195610f9b575b508061043d57505060e435916118ad565b610fb39060203d60201161024f57610240818361127f565b505f610f8a565b6040513d88823e3d90fd5b60405162461bcd60e51b815260206004820152602860248201527f436f6f7264696e61746f723a20696e76616c6964206465706f7369746f72207360448201526769676e617475726560c01b6064820152608490fd5b9092506020813d602011611047575b816110376020938361127f565b8101031261026e5751915f610d54565b3d915061102a565b6040513d8b823e3d90fd5b6337ed32e888526004601cfd5b90503461026e5760a036600319011261026e576004356024356110886111df565b926110916111f5565b92608435935f5c6111d25760015f5d6372043def60e01b83526001600160a01b03927f000000000000000000000000000000000000000000000000000000000000000084169060208082806110ee8b88308f8e8d600488016113f8565b0381865afa918215611198575f926111a3575b505f90828252818152866040832054169261111d841515611431565b82525260405f2080546001600160a01b0319169055813b1561026e575f9685889460c4976040519b8c9a8b99631d08ef5d60e31b8b5260048b015260248a0152166044880152166064860152608485015260a48401525af1801561119857611187575b5080805d80f35b6111919150611251565b5f80611180565b6040513d5f823e3d90fd5b9080925081813d83116111cb575b6111bb818361127f565b8101031261026e5751905f611101565b503d6111b1565b6337ed32e85f526004601cfd5b604435906001600160a01b038216820361026e57565b606435906001600160a01b038216820361026e57565b60c435906001600160a01b038216820361026e57565b9181601f8401121561026e578235916001600160401b03831161026e576020808501948460051b01011161026e57565b6001600160401b038111610af657604052565b608081019081106001600160401b03821117610af657604052565b90601f801991011681019081106001600160401b03821117610af657604052565b6040519061010082018281106001600160401b03821117610af65760405260c98252683620616d6f756e742960b81b60e0837f45786563757465416e64437265617465207769746e657373294578656375746560208201527f416e64437265617465286279746573333220707265696d616765486173682c6160408201527f64647265737320746f6b656e2c6164647265737320636c61696d41646472657360608201527f732c6164647265737320726566756e64416464726573732c75696e743235362060808201527f74696d656c6f636b2c627974657333322063616c6c734861736829546f6b656e60a08201527f5065726d697373696f6e73286164647265737320746f6b656e2c75696e74323560c08201520152565b91908251928382525f5b8481106113e4575050825f602080949584010152601f8019910116010190565b6020818301810151848301820152016113c4565b90815260208101919091526001600160a01b0391821660408201529181166060830152909116608082015260a081019190915260c00190565b1561143857565b60405162461bcd60e51b815260206004820152601960248201527f436f6f7264696e61746f723a20756e6b6e6f776e2048544c43000000000000006044820152606490fd5b9081602091031261026e57516001600160a01b038116810361026e5790565b156114a357565b60405162461bcd60e51b815260206004820152602160248201527f436f6f7264696e61746f723a20696e73756666696369656e742062616c616e636044820152606560f81b6064820152608490fd5b908060209392818452848401375f828201840152601f01601f1916010190565b604080518092602080830195806040850183895252606091606085019360608360051b8701019481975f925b858410611565575050505050505061155f925003601f19810183528261127f565b51902090565b9193959750919395605f198a82030184528835605e198336030181121561026e57820180356001600160a01b0381169081900361026e578252868101358783015283810135601e198236030181121561026e570186810190356001600160401b03811161026e57803603821361026e576115ec889283928c86818a600199015201916114f2565b9a019401940191899795939896949161153e565b356001600160a01b038116810361026e5790565b903590601e198136030182121561026e57018035906001600160401b03821161026e5760200191813603831361026e57565b3d1561167f573d906001600160401b038211610af65760405191611674601f8201601f19166020018461127f565b82523d5f602084013e565b606090565b6001600160a01b037f00000000000000000000000000000000000000000000000000000000000000008116915f5b8481106116c0575050505050565b8060051b820135605e198336030181121561026e578201836116e182611600565b168581141590816118a2575b81611875575b5015611830576040808201916117098382611614565b9390600494858110156117ac575b50508160205f939261173361172c8695611600565b9184611614565b92908388519485928337810186815203930135905af1611751611646565b50156117615750506001016116b2565b6117a892505191829162461bcd60e51b8352820160609060208152601860208201527710dbdbdc991a5b985d1bdc8e8818d85b1b0819985a5b195960421b60408201520190565b0390fd5b859391931161026e575f92839260209161182690356001600160e01b0319166117de6323b872dd60e01b8214156119e9565b6117f1632142170760e11b8214156119e9565b611804635c46a7ef60e11b8214156119e9565b611817637921219560e11b8214156119e9565b631759616b60e11b14156119e9565b9250819350611717565b60405162461bcd60e51b815260206004820152601e60248201527f436f6f7264696e61746f723a20726573747269637465642074617267657400006044820152606490fd5b9050847f00000000000000000000000000000000000000000000000000000000000000001614155f6116f3565b3081141591506116ed565b6001600160a01b0391821680158015611981576118ce47955b86101561149c565b841561197a571561193457505f809381938293165af16118ec611646565b50156118f457565b60405162461bcd60e51b815260206004820152601860248201527710dbdbdc991a5b985d1bdc8e8818d85b1b0819985a5b195960421b6044820152606490fd5b60405163a9059cbb60e01b60208201526001600160a01b039290921660248301526044808301949094529281526119789290915061197360648361127f565b611a43565b565b5050505050565b6040516370a0823160e01b8152306004820152602081602481865afa8015611198575f906119b5575b6118ce9150956118c6565b506020813d6020116119e1575b816119cf6020938361127f565b8101031261026e576118ce90516119aa565b3d91506119c2565b156119f057565b60405162461bcd60e51b815260206004820152602560248201527f436f6f7264696e61746f723a207472616e7366657246726f6d206e6f7420616c6044820152641b1bddd95960da1b6064820152608490fd5b905f602091828151910182855af115611198575f513d611a9457506001600160a01b0381163b155b611a725750565b604051635274afe760e01b81526001600160a01b039091166004820152602490fd5b60011415611a6b56fea2646970667358221220f3dd021d6ed20f5b9fe2f97cf478b1247e7b7f138697c7349aedd7a7b0c66b1964736f6c63430008180033","linkReferences":{}},"methodIdentifiers":{"DOMAIN_SEPARATOR()":"3644e515","HTLC()":"6f28f31d","PERMIT2()":"6afdd850","TYPEHASH_COLLAB_REFUND()":"6ecd9108","TYPEHASH_EXECUTE_AND_CREATE()":"7068967c","TYPESTRING_EXECUTE_AND_CREATE()":"9643cc36","VERSION()":"ffa1ad74","collabRefundAndExecute(bytes32,uint256,address,address,uint256,(address,uint256,bytes)[],address,uint256,uint8,bytes32,bytes32,uint8,bytes32,bytes32)":"2c1b9d7c","deposits(bytes32)":"3d4dff7b","executeAndCreateWithPermit2((address,uint256,bytes)[],bytes32,address,address,uint256,address,((address,uint256),uint256,uint256),bytes)":"750e3d3c","redeemAndExecute(bytes32,uint256,address,address,uint256,(address,uint256,bytes)[],address,uint256,address,uint8,bytes32,bytes32)":"ee2837cf","refundAndExecute(bytes32,uint256,address,address,uint256,(address,uint256,bytes)[],address,uint256)":"bc61d4e7","refundTo(bytes32,uint256,address,address,uint256)":"29240837"},"id":32}