{"abi":[{"type":"constructor","inputs":[{"name":"htlc","type":"address","internalType":"address"},{"name":"permit2","type":"address","internalType":"address"}],"stateMutability":"nonpayable"},{"type":"receive","stateMutability":"payable"},{"type":"function","name":"DOMAIN_SEPARATOR","inputs":[],"outputs":[{"name":"","type":"bytes32","internalType":"bytes32"}],"stateMutability":"view"},{"type":"function","name":"HTLC","inputs":[],"outputs":[{"name":"","type":"address","internalType":"contract HTLCErc20"}],"stateMutability":"view"},{"type":"function","name":"PERMIT2","inputs":[],"outputs":[{"name":"","type":"address","internalType":"contract ISignatureTransfer"}],"stateMutability":"view"},{"type":"function","name":"TYPEHASH_COLLAB_REFUND","inputs":[],"outputs":[{"name":"","type":"bytes32","internalType":"bytes32"}],"stateMutability":"view"},{"type":"function","name":"TYPEHASH_EXECUTE_AND_CREATE","inputs":[],"outputs":[{"name":"","type":"bytes32","internalType":"bytes32"}],"stateMutability":"view"},{"type":"function","name":"TYPESTRING_EXECUTE_AND_CREATE","inputs":[],"outputs":[{"name":"","type":"string","internalType":"string"}],"stateMutability":"view"},{"type":"function","name":"VERSION","inputs":[],"outputs":[{"name":"","type":"uint8","internalType":"uint8"}],"stateMutability":"view"},{"type":"function","name":"collabRefundAndExecute","inputs":[{"name":"preimageHash","type":"bytes32","internalType":"bytes32"},{"name":"amount","type":"uint256","internalType":"uint256"},{"name":"token","type":"address","internalType":"address"},{"name":"claimAddress","type":"address","internalType":"address"},{"name":"timelock","type":"uint256","internalType":"uint256"},{"name":"calls","type":"tuple[]","internalType":"struct HTLCCoordinator.Call[]","components":[{"name":"target","type":"address","internalType":"address"},{"name":"value","type":"uint256","internalType":"uint256"},{"name":"callData","type":"bytes","internalType":"bytes"}]},{"name":"sweepToken","type":"address","internalType":"address"},{"name":"minAmountOut","type":"uint256","internalType":"uint256"},{"name":"depositorV","type":"uint8","internalType":"uint8"},{"name":"depositorR","type":"bytes32","internalType":"bytes32"},{"name":"depositorS","type":"bytes32","internalType":"bytes32"},{"name":"claimV","type":"uint8","internalType":"uint8"},{"name":"claimR","type":"bytes32","internalType":"bytes32"},{"name":"claimS","type":"bytes32","internalType":"bytes32"}],"outputs":[],"stateMutability":"nonpayable"},{"type":"function","name":"deposits","inputs":[{"name":"","type":"bytes32","internalType":"bytes32"}],"outputs":[{"name":"","type":"address","internalType":"address"}],"stateMutability":"view"},{"type":"function","name":"executeAndCreateWithPermit2","inputs":[{"name":"calls","type":"tuple[]","internalType":"struct HTLCCoordinator.Call[]","components":[{"name":"target","type":"address","internalType":"address"},{"name":"value","type":"uint256","internalType":"uint256"},{"name":"callData","type":"bytes","internalType":"bytes"}]},{"name":"preimageHash","type":"bytes32","internalType":"bytes32"},{"name":"token","type":"address","internalType":"address"},{"name":"claimAddress","type":"address","internalType":"address"},{"name":"timelock","type":"uint256","internalType":"uint256"},{"name":"depositor","type":"address","internalType":"address"},{"name":"permit","type":"tuple","internalType":"struct ISignatureTransfer.PermitTransferFrom","components":[{"name":"permitted","type":"tuple","internalType":"struct ISignatureTransfer.TokenPermissions","components":[{"name":"token","type":"address","internalType":"address"},{"name":"amount","type":"uint256","internalType":"uint256"}]},{"name":"nonce","type":"uint256","internalType":"uint256"},{"name":"deadline","type":"uint256","internalType":"uint256"}]},{"name":"signature","type":"bytes","internalType":"bytes"}],"outputs":[],"stateMutability":"nonpayable"},{"type":"function","name":"redeemAndExecute","inputs":[{"name":"preimage","type":"bytes32","internalType":"bytes32"},{"name":"amount","type":"uint256","internalType":"uint256"},{"name":"token","type":"address","internalType":"address"},{"name":"htlcSender","type":"address","internalType":"address"},{"name":"timelock","type":"uint256","internalType":"uint256"},{"name":"calls","type":"tuple[]","internalType":"struct HTLCCoordinator.Call[]","components":[{"name":"target","type":"address","internalType":"address"},{"name":"value","type":"uint256","internalType":"uint256"},{"name":"callData","type":"bytes","internalType":"bytes"}]},{"name":"sweepToken","type":"address","internalType":"address"},{"name":"minAmountOut","type":"uint256","internalType":"uint256"},{"name":"destination","type":"address","internalType":"address"},{"name":"v","type":"uint8","internalType":"uint8"},{"name":"r","type":"bytes32","internalType":"bytes32"},{"name":"s","type":"bytes32","internalType":"bytes32"}],"outputs":[],"stateMutability":"nonpayable"},{"type":"function","name":"refundAndExecute","inputs":[{"name":"preimageHash","type":"bytes32","internalType":"bytes32"},{"name":"amount","type":"uint256","internalType":"uint256"},{"name":"token","type":"address","internalType":"address"},{"name":"claimAddress","type":"address","internalType":"address"},{"name":"timelock","type":"uint256","internalType":"uint256"},{"name":"calls","type":"tuple[]","internalType":"struct HTLCCoordinator.Call[]","components":[{"name":"target","type":"address","internalType":"address"},{"name":"value","type":"uint256","internalType":"uint256"},{"name":"callData","type":"bytes","internalType":"bytes"}]},{"name":"sweepToken","type":"address","internalType":"address"},{"name":"minAmountOut","type":"uint256","internalType":"uint256"}],"outputs":[],"stateMutability":"nonpayable"},{"type":"function","name":"refundTo","inputs":[{"name":"preimageHash","type":"bytes32","internalType":"bytes32"},{"name":"amount","type":"uint256","internalType":"uint256"},{"name":"token","type":"address","internalType":"address"},{"name":"claimAddress","type":"address","internalType":"address"},{"name":"timelock","type":"uint256","internalType":"uint256"}],"outputs":[],"stateMutability":"nonpayable"},{"type":"error","name":"Reentrancy","inputs":[]},{"type":"error","name":"SafeERC20FailedOperation","inputs":[{"name":"token","type":"address","internalType":"address"}]}],"bytecode":{"object":"0x60e034620001c4576001600160401b0390601f62001cb638819003918201601f191683019184831184841017620001b0578084926040948552833981010312620001c4576200005c60206200005483620001c8565b9201620001c8565b60405160208101907f8b73c3c69bb8fe3d512ecc4cf759cc79239f7b179b0ffacaa9a75d522b39400f82527fd61e6aa007f7b765a1cb9226c137c3d79a8a23eb0056dc57f63babcebfc0a6e860408201527f2a80e1ef1d7842f27f2e6be0972bb708b9a135c38860dbe73c27c3486c34f4de60608201524660808201523060a082015260a0815260c081019481861090861117620001b05760408590525190206080526001600160a01b0391821660a0521660c052611ad89081620001de8239608051818181610c5d0152610e49015260a0518181816101dd0152818161030001528181610380015281816103f60152818161081701528181610878015281816108ee0152818161095301528181610a1d01528181610b6401528181610d2101528181610f5d015281816110ba0152611693015260c0518181816106960152818161077a01528181610be4015261187f0152f35b634e487b7160e01b5f52604160045260245ffd5b5f80fd5b51906001600160a01b0382168203620001c45756fe608080604052600436101561001c575b50361561001a575f80fd5b005b5f905f3560e01c908163292408371461106c575080632c1b9d7c14610c805780633644e51514610c455780633d4dff7b14610c135780636afdd85014610bce5780636ecd910814610b935780636f28f31d14610b4e5780637068967c14610b13578063750e3d3c1461053e5780639643cc361461050a578063bc61d4e71461027b578063ee2837cf146100d15763ffa1ad740361000f57346100ce57806003193601126100ce57602060405160038152f35b80fd5b50346100ce576101803660031901126100ce576100ec6111e4565b6100f46111fa565b60a4356001600160401b03811161027757610113903690600401611226565b61011b611210565b92610104356001600160a01b038116900361027357610124359060ff8216820361027357865c610266579060ff916001885d6101578486611517565b60405163a2aa3de160e01b8152600480359082015260248035908201526001600160a01b039889166044820152918816606483015260848035908301526101048035891660a484015287891660c484015260e4803590840152820152911661012482015261014480359082015261016480359082015293602090859061018490829089907f0000000000000000000000000000000000000000000000000000000000000000165af191821561025b57610226946102199361022c575b50611689565b60e43590610104356118b2565b80805d80f35b61024d9060203d602011610254575b6102458183611284565b810190611482565b505f610213565b503d61023b565b6040513d87823e3d90fd5b6337ed32e887526004601cfd5b5f80fd5b8380fd5b50346100ce576101003660031901126100ce576102966111e4565b61029e6111fa565b60a4356001600160401b038111610277576102bd903690600401611226565b92906102c7611210565b91855c6104fd576001865d6040516372043def60e01b815290602082806102fc608435893087602435600480359088016113fd565b03817f00000000000000000000000000000000000000000000000000000000000000006001600160a01b03165afa9182156104f25787926104be575b50818752602087905260408720546001600160a01b03169461035b861515611436565b8533036104795791875260208790526040872080546001600160a01b031916905586917f00000000000000000000000000000000000000000000000000000000000000006001600160a01b03163b1561047557604051633650472160e01b8152600480359082015260248035908201526001600160a01b03928316604482015291166064820152608480359082015281818060a481010381837f00000000000000000000000000000000000000000000000000000000000000006001600160a01b03165af1801561046a57610452575b50508361022694610442575b505060e435916118b2565b61044b91611689565b5f80610437565b61045b90611256565b61046657845f61042b565b8480fd5b6040513d84823e3d90fd5b8280fd5b60405162461bcd60e51b815260206004820152601960248201527f436f6f7264696e61746f723a20756e617574686f72697a6564000000000000006044820152606490fd5b9091506020813d6020116104ea575b816104da60209383611284565b810103126102735751905f610338565b3d91506104cd565b6040513d89823e3d90fd5b6337ed32e886526004601cfd5b50346100ce57806003193601126100ce5761053a6105266112a5565b6040519182916020835260208301906113bf565b0390f35b50346100ce576101603660031901126100ce576004356001600160401b038111610b0f57610570903690600401611226565b906105796111e4565b906105826111fa565b60a435939091906001600160a01b03851685036102735760803660c3190112610af7576001600160401b036101443511610af75736602361014435011215610af7576001600160401b03610144356004013511610af757366024610144356004013561014435010111610af757855c6104fd576001865d6106038183611517565b604051907f01f068030ecb4faa4fc19679afdcbe9c2619d263df5345b2b316a22b6ac0a3468252602435602083015285604083015284606083015230608083015260843560a083015260c082015260e0812060e082016101208301106001600160401b0361012084011117610afb57816101208993016040523060e082015260e4356101008201526106936112a5565b907f00000000000000000000000000000000000000000000000000000000000000006001600160a01b03163b15610277576040516309be14ff60e11b8152928492849283926107759261075591610140908f906001600160a01b036106f6611210565b16600489015260e4803560248a0152610104803560448b0152610124803560648c015260e08901516001600160a01b0390811660848d0152610100999099015160a48c01529790931660c48a01528801528601526101448501906113bf565b9060031984830301908401526101443560040135602461014435016114f7565b0381837f00000000000000000000000000000000000000000000000000000000000000006001600160a01b03165af1801561046a57610ae3575b50506107ba91611689565b6040516370a0823160e01b8152306004820152906020826024816001600160a01b0387165afa91821561025b578592610aaf575b506107fa8215156114a1565b60405163095ea7b360e01b60208083019182526001600160a01b037f000000000000000000000000000000000000000000000000000000000000000016602484015260448084018690528352908790610854606485611284565b835190826001600160a01b0389165af186513d82610a8a575b505015610a0b575b507f00000000000000000000000000000000000000000000000000000000000000006001600160a01b03163b156104665760405163b3fa9a1360e01b815260248035600483015281018390526001600160a01b038085166044830152821660648201526084803590820152859081818060a481010381837f00000000000000000000000000000000000000000000000000000000000000006001600160a01b03165af1801561046a576109f7575b505060209161094f60405194859384936372043def60e01b8552608435923091602435600488016113fd565b03817f00000000000000000000000000000000000000000000000000000000000000006001600160a01b03165afa9081156109ec5783916109ba575b50825260208290526040822080546001600160a01b0319166001600160a01b0390921691909117905580805d80f35b90506020813d6020116109e4575b816109d560209383611284565b8101031261027357515f61098b565b3d91506109c8565b6040513d85823e3d90fd5b610a0090611256565b61046657845f610923565b60405163095ea7b360e01b60208201527f00000000000000000000000000000000000000000000000000000000000000006001600160a01b0316602482015260448082018890528152610a849190610a7590610a6681611269565b6001600160a01b038716611a48565b6001600160a01b038516611a48565b5f610875565b909150610aa757506001600160a01b0384163b15155b5f8061086d565b600114610aa0565b9091506020813d602011610adb575b81610acb60209383611284565b810103126102735751905f6107ee565b3d9150610abe565b610aec90611256565b610af757855f6107af565b8580fd5b634e487b7160e01b5f52604160045260245ffd5b5080fd5b50346100ce57806003193601126100ce5760206040517f01f068030ecb4faa4fc19679afdcbe9c2619d263df5345b2b316a22b6ac0a3468152f35b50346100ce57806003193601126100ce576040517f00000000000000000000000000000000000000000000000000000000000000006001600160a01b03168152602090f35b50346100ce57806003193601126100ce5760206040517f8ccec3a6de1ce289ae59477cae22360d9f468f1d9c6232caf98ce744c2c722e68152f35b50346100ce57806003193601126100ce576040517f00000000000000000000000000000000000000000000000000000000000000006001600160a01b03168152602090f35b50346100ce5760203660031901126100ce576020906004358152808252604060018060a01b0391205416604051908152f35b50346100ce57806003193601126100ce5760206040517f00000000000000000000000000000000000000000000000000000000000000008152f35b50346100ce576101c03660031901126100ce57610c9b6111e4565b610ca36111fa565b60a4356001600160401b03811161027757610cc2903690600401611226565b90610ccb611210565b91610104359360ff85168503610273576101643560ff8116810361027357875c61105f576001885d6040516372043def60e01b81529160208380610d1d60843585308e602435600480359088016113fd565b03817f00000000000000000000000000000000000000000000000000000000000000006001600160a01b03165afa928315611054578993611020575b50828952602089905260408920546001600160a01b031696610d7c881515611436565b610d868587611517565b604080517f8ccec3a6de1ce289ae59477cae22360d9f468f1d9c6232caf98ce744c2c722e660208201526004359181019190915260243560608201526001600160a01b038b8116608083015293841660a082015260843560c08201523360e082015292881661010084015260e4356101208401526101408084019190915282526001600160401b03610160830190811190831117610afb5760808a9160ff84610160602096016040526101608151878301209161018081019261190160f01b84527f00000000000000000000000000000000000000000000000000000000000000006101828301526101a2820152604282820152610e85828201611269565b0151902091604051928352168482015261012435604082015261014435606082015282805260015afa156104f25787516001600160a01b0316869003610fca579087526020878152604080892080546001600160a01b031916905551635d8a7b2b60e11b8152600480359082015260248035908201526001600160a01b039788166044820152306064820152608480359082015260a4810187905285881660c482015260e480359082015260ff909216610104830152610184356101248301526101a435610144830152909586906101649082908a907f0000000000000000000000000000000000000000000000000000000000000000165af1948515610fbf5761022695610fa0575b508061044257505060e435916118b2565b610fb89060203d602011610254576102458183611284565b505f610f8f565b6040513d88823e3d90fd5b60405162461bcd60e51b815260206004820152602860248201527f436f6f7264696e61746f723a20696e76616c6964206465706f7369746f72207360448201526769676e617475726560c01b6064820152608490fd5b9092506020813d60201161104c575b8161103c60209383611284565b810103126102735751915f610d59565b3d915061102f565b6040513d8b823e3d90fd5b6337ed32e888526004601cfd5b9050346102735760a03660031901126102735760043560243561108d6111e4565b926110966111fa565b92608435935f5c6111d75760015f5d6372043def60e01b83526001600160a01b03927f000000000000000000000000000000000000000000000000000000000000000084169060208082806110f38b88308f8e8d600488016113fd565b0381865afa91821561119d575f926111a8575b505f908282528181528660408320541692611122841515611436565b82525260405f2080546001600160a01b0319169055813b15610273575f9685889460c4976040519b8c9a8b99631d08ef5d60e31b8b5260048b015260248a0152166044880152166064860152608485015260a48401525af1801561119d5761118c575b5080805d80f35b6111969150611256565b5f80611185565b6040513d5f823e3d90fd5b9080925081813d83116111d0575b6111c08183611284565b810103126102735751905f611106565b503d6111b6565b6337ed32e85f526004601cfd5b604435906001600160a01b038216820361027357565b606435906001600160a01b038216820361027357565b60c435906001600160a01b038216820361027357565b9181601f84011215610273578235916001600160401b038311610273576020808501948460051b01011161027357565b6001600160401b038111610afb57604052565b608081019081106001600160401b03821117610afb57604052565b90601f801991011681019081106001600160401b03821117610afb57604052565b6040519061010082018281106001600160401b03821117610afb5760405260c98252683620616d6f756e742960b81b60e0837f45786563757465416e64437265617465207769746e657373294578656375746560208201527f416e64437265617465286279746573333220707265696d616765486173682c6160408201527f64647265737320746f6b656e2c6164647265737320636c61696d41646472657360608201527f732c6164647265737320726566756e64416464726573732c75696e743235362060808201527f74696d656c6f636b2c627974657333322063616c6c734861736829546f6b656e60a08201527f5065726d697373696f6e73286164647265737320746f6b656e2c75696e74323560c08201520152565b91908251928382525f5b8481106113e9575050825f602080949584010152601f8019910116010190565b6020818301810151848301820152016113c9565b90815260208101919091526001600160a01b0391821660408201529181166060830152909116608082015260a081019190915260c00190565b1561143d57565b60405162461bcd60e51b815260206004820152601960248201527f436f6f7264696e61746f723a20756e6b6e6f776e2048544c43000000000000006044820152606490fd5b9081602091031261027357516001600160a01b03811681036102735790565b156114a857565b60405162461bcd60e51b815260206004820152602160248201527f436f6f7264696e61746f723a20696e73756666696369656e742062616c616e636044820152606560f81b6064820152608490fd5b908060209392818452848401375f828201840152601f01601f1916010190565b604080518092602080830195806040850183895252606091606085019360608360051b8701019481975f925b85841061156a5750505050505050611564925003601f198101835282611284565b51902090565b9193959750919395605f198a82030184528835605e198336030181121561027357820180356001600160a01b03811690819003610273578252868101358783015283810135601e1982360301811215610273570186810190356001600160401b038111610273578036038213610273576115f1889283928c86818a600199015201916114f7565b9a0194019401918997959398969491611543565b356001600160a01b03811681036102735790565b903590601e198136030182121561027357018035906001600160401b0382116102735760200191813603831361027357565b3d15611684573d906001600160401b038211610afb5760405191611679601f8201601f191660200184611284565b82523d5f602084013e565b606090565b6001600160a01b037f00000000000000000000000000000000000000000000000000000000000000008116915f5b8481106116c5575050505050565b8060051b820135605e1983360301811215610273578201836116e682611605565b168581141590816118a7575b8161187a575b50156118355760408082019161170e8382611619565b9390600494858110156117b1575b50508160205f93926117386117318695611605565b9184611619565b92908388519485928337810186815203930135905af161175661164b565b50156117665750506001016116b7565b6117ad92505191829162461bcd60e51b8352820160609060208152601860208201527710dbdbdc991a5b985d1bdc8e8818d85b1b0819985a5b195960421b60408201520190565b0390fd5b8593919311610273575f92839260209161182b90356001600160e01b0319166117e36323b872dd60e01b8214156119ee565b6117f6632142170760e11b8214156119ee565b611809635c46a7ef60e11b8214156119ee565b61181c637921219560e11b8214156119ee565b631759616b60e11b14156119ee565b925081935061171c565b60405162461bcd60e51b815260206004820152601e60248201527f436f6f7264696e61746f723a20726573747269637465642074617267657400006044820152606490fd5b9050847f00000000000000000000000000000000000000000000000000000000000000001614155f6116f8565b3081141591506116f2565b6001600160a01b0391821680158015611986576118d347955b8610156114a1565b841561197f571561193957505f809381938293165af16118f161164b565b50156118f957565b60405162461bcd60e51b815260206004820152601860248201527710dbdbdc991a5b985d1bdc8e8818d85b1b0819985a5b195960421b6044820152606490fd5b60405163a9059cbb60e01b60208201526001600160a01b0392909216602483015260448083019490945292815261197d92909150611978606483611284565b611a48565b565b5050505050565b6040516370a0823160e01b8152306004820152602081602481865afa801561119d575f906119ba575b6118d39150956118cb565b506020813d6020116119e6575b816119d460209383611284565b81010312610273576118d390516119af565b3d91506119c7565b156119f557565b60405162461bcd60e51b815260206004820152602560248201527f436f6f7264696e61746f723a207472616e7366657246726f6d206e6f7420616c6044820152641b1bddd95960da1b6064820152608490fd5b905f602091828151910182855af11561119d575f513d611a9957506001600160a01b0381163b155b611a775750565b604051635274afe760e01b81526001600160a01b039091166004820152602490fd5b60011415611a7056fea2646970667358221220492282661e310005181ca6771104b90f0f94e091f47a95f92e82d95148cc000c64736f6c63430008180033","linkReferences":{}},"methodIdentifiers":{"DOMAIN_SEPARATOR()":"3644e515","HTLC()":"6f28f31d","PERMIT2()":"6afdd850","TYPEHASH_COLLAB_REFUND()":"6ecd9108","TYPEHASH_EXECUTE_AND_CREATE()":"7068967c","TYPESTRING_EXECUTE_AND_CREATE()":"9643cc36","VERSION()":"ffa1ad74","collabRefundAndExecute(bytes32,uint256,address,address,uint256,(address,uint256,bytes)[],address,uint256,uint8,bytes32,bytes32,uint8,bytes32,bytes32)":"2c1b9d7c","deposits(bytes32)":"3d4dff7b","executeAndCreateWithPermit2((address,uint256,bytes)[],bytes32,address,address,uint256,address,((address,uint256),uint256,uint256),bytes)":"750e3d3c","redeemAndExecute(bytes32,uint256,address,address,uint256,(address,uint256,bytes)[],address,uint256,address,uint8,bytes32,bytes32)":"ee2837cf","refundAndExecute(bytes32,uint256,address,address,uint256,(address,uint256,bytes)[],address,uint256)":"bc61d4e7","refundTo(bytes32,uint256,address,address,uint256)":"29240837"},"id":48}