{"abi":[{"type":"function","name":"DOMAIN_SEPARATOR","inputs":[],"outputs":[{"name":"","type":"bytes32","internalType":"bytes32"}],"stateMutability":"view"},{"type":"function","name":"TYPEHASH_REDEEM","inputs":[],"outputs":[{"name":"","type":"bytes32","internalType":"bytes32"}],"stateMutability":"view"},{"type":"function","name":"TYPEHASH_REFUND","inputs":[],"outputs":[{"name":"","type":"bytes32","internalType":"bytes32"}],"stateMutability":"view"},{"type":"function","name":"VERSION","inputs":[],"outputs":[{"name":"","type":"uint8","internalType":"uint8"}],"stateMutability":"view"},{"type":"function","name":"computeKey","inputs":[{"name":"preimageHash","type":"bytes32","internalType":"bytes32"},{"name":"amount","type":"uint256","internalType":"uint256"},{"name":"token","type":"address","internalType":"address"},{"name":"sender","type":"address","internalType":"address"},{"name":"claimAddress","type":"address","internalType":"address"},{"name":"timelock","type":"uint256","internalType":"uint256"}],"outputs":[{"name":"","type":"bytes32","internalType":"bytes32"}],"stateMutability":"pure"},{"type":"function","name":"create","inputs":[{"name":"preimageHash","type":"bytes32","internalType":"bytes32"},{"name":"amount","type":"uint256","internalType":"uint256"},{"name":"token","type":"address","internalType":"address"},{"name":"refundAddress","type":"address","internalType":"address"},{"name":"claimAddress","type":"address","internalType":"address"},{"name":"timelock","type":"uint256","internalType":"uint256"}],"outputs":[],"stateMutability":"nonpayable"},{"type":"function","name":"create","inputs":[{"name":"preimageHash","type":"bytes32","internalType":"bytes32"},{"name":"amount","type":"uint256","internalType":"uint256"},{"name":"token","type":"address","internalType":"address"},{"name":"claimAddress","type":"address","internalType":"address"},{"name":"timelock","type":"uint256","internalType":"uint256"}],"outputs":[],"stateMutability":"nonpayable"},{"type":"function","name":"isActive","inputs":[{"name":"preimageHash","type":"bytes32","internalType":"bytes32"},{"name":"amount","type":"uint256","internalType":"uint256"},{"name":"token","type":"address","internalType":"address"},{"name":"sender","type":"address","internalType":"address"},{"name":"claimAddress","type":"address","internalType":"address"},{"name":"timelock","type":"uint256","internalType":"uint256"}],"outputs":[{"name":"","type":"bool","internalType":"bool"}],"stateMutability":"view"},{"type":"function","name":"redeem","inputs":[{"name":"preimage","type":"bytes32","internalType":"bytes32"},{"name":"amount","type":"uint256","internalType":"uint256"},{"name":"token","type":"address","internalType":"address"},{"name":"sender","type":"address","internalType":"address"},{"name":"timelock","type":"uint256","internalType":"uint256"}],"outputs":[],"stateMutability":"nonpayable"},{"type":"function","name":"redeemBySig","inputs":[{"name":"preimage","type":"bytes32","internalType":"bytes32"},{"name":"amount","type":"uint256","internalType":"uint256"},{"name":"token","type":"address","internalType":"address"},{"name":"sender","type":"address","internalType":"address"},{"name":"timelock","type":"uint256","internalType":"uint256"},{"name":"destination","type":"address","internalType":"address"},{"name":"sweepToken","type":"address","internalType":"address"},{"name":"minAmountOut","type":"uint256","internalType":"uint256"},{"name":"callsHash","type":"bytes32","internalType":"bytes32"},{"name":"v","type":"uint8","internalType":"uint8"},{"name":"r","type":"bytes32","internalType":"bytes32"},{"name":"s","type":"bytes32","internalType":"bytes32"}],"outputs":[{"name":"claimAddress","type":"address","internalType":"address"}],"stateMutability":"nonpayable"},{"type":"function","name":"refund","inputs":[{"name":"preimageHash","type":"bytes32","internalType":"bytes32"},{"name":"amount","type":"uint256","internalType":"uint256"},{"name":"token","type":"address","internalType":"address"},{"name":"claimAddress","type":"address","internalType":"address"},{"name":"timelock","type":"uint256","internalType":"uint256"}],"outputs":[],"stateMutability":"nonpayable"},{"type":"function","name":"refund","inputs":[{"name":"preimageHash","type":"bytes32","internalType":"bytes32"},{"name":"amount","type":"uint256","internalType":"uint256"},{"name":"token","type":"address","internalType":"address"},{"name":"claimAddress","type":"address","internalType":"address"},{"name":"timelock","type":"uint256","internalType":"uint256"},{"name":"destination","type":"address","internalType":"address"}],"outputs":[],"stateMutability":"nonpayable"},{"type":"function","name":"refundBySig","inputs":[{"name":"preimageHash","type":"bytes32","internalType":"bytes32"},{"name":"amount","type":"uint256","internalType":"uint256"},{"name":"token","type":"address","internalType":"address"},{"name":"refundAddress","type":"address","internalType":"address"},{"name":"timelock","type":"uint256","internalType":"uint256"},{"name":"destination","type":"address","internalType":"address"},{"name":"sweepToken","type":"address","internalType":"address"},{"name":"minAmountOut","type":"uint256","internalType":"uint256"},{"name":"v","type":"uint8","internalType":"uint8"},{"name":"r","type":"bytes32","internalType":"bytes32"},{"name":"s","type":"bytes32","internalType":"bytes32"}],"outputs":[{"name":"claimAddress","type":"address","internalType":"address"}],"stateMutability":"nonpayable"},{"type":"function","name":"swaps","inputs":[{"name":"","type":"bytes32","internalType":"bytes32"}],"outputs":[{"name":"","type":"bool","internalType":"bool"}],"stateMutability":"view"},{"type":"event","name":"SwapCreated","inputs":[{"name":"preimageHash","type":"bytes32","indexed":true,"internalType":"bytes32"},{"name":"refundAddress","type":"address","indexed":true,"internalType":"address"},{"name":"claimAddress","type":"address","indexed":true,"internalType":"address"},{"name":"token","type":"address","indexed":false,"internalType":"address"},{"name":"amount","type":"uint256","indexed":false,"internalType":"uint256"},{"name":"timelock","type":"uint256","indexed":false,"internalType":"uint256"}],"anonymous":false},{"type":"event","name":"SwapRedeemed","inputs":[{"name":"preimageHash","type":"bytes32","indexed":true,"internalType":"bytes32"},{"name":"preimage","type":"bytes32","indexed":false,"internalType":"bytes32"}],"anonymous":false},{"type":"event","name":"SwapRefunded","inputs":[{"name":"preimageHash","type":"bytes32","indexed":true,"internalType":"bytes32"}],"anonymous":false},{"type":"error","name":"Reentrancy","inputs":[]},{"type":"error","name":"SafeERC20FailedOperation","inputs":[{"name":"token","type":"address","internalType":"address"}]}],"bytecode":{"object":"0x60a0346100e057602081017f8b73c3c69bb8fe3d512ecc4cf759cc79239f7b179b0ffacaa9a75d522b39400f81527fb4af9da5d93610a5d908f9dfad5d749e0352089cd961dd61166999ebc50514d360408301527f2a80e1ef1d7842f27f2e6be0972bb708b9a135c38860dbe73c27c3486c34f4de60608301524660808301523060a083015260a0825260c082019180831060018060401b038411176100cc5782604052519020608052610d2790816100e582396080518181816102740152818161053e01526107bd0152f35b634e487b7160e01b5f52604160045260245ffd5b5f80fdfe604060808152600480361015610013575f80fd5b5f3560e01c90816306799dee1461080a578163160c723c146107e05781633644e515146107a6578163365047211461076757816372043def1461073f578163776211c11461066d578163791d515914610633578163a2aa3de1146103f5578163a9ab4d5b146103bb578163b3fa9a1314610387578163bb14f6561461016b578163e8477ae814610100578163eb84e7f2146100d5575063ffa1ad74146100b7575f80fd5b346100d1575f3660031901126100d1576020905160038152f35b5f80fd5b82346100d15760203660031901126100d157602091355f525f825260ff815f20541690519015158152f35b346100d15760c03660031901126100d15760243561011c61083f565b610124610855565b9061012d61086b565b915f5c61015f5761015a9461014c9160015f5d83866084359335610b95565b6001600160a01b0316610c40565b5f805d005b846337ed32e85f52601cfd5b82346100d157610160806003193601126100d15782359060243561018d61083f565b92610196610855565b93608435906101a361086b565b946101ac610881565b95610104359160ff831683036100d1575f5c61037b579989899a9b60015f9b999a9b5d8151938860208601937ff5f1e23b7a04036935e522ca1b86ed2ff65367d07d1717588e72789d34417a0b85528601528a606086015260018060a01b039b8c809281808b169d8e60808b01521660a08901528a60c08901523360e0890152166101008701521661012085015261014060e43581860152845283019183831067ffffffffffffffff8411176103685750818c528251902061190160f01b61018084019081527f00000000000000000000000000000000000000000000000000000000000000006101828501526101a290930152604281526020925f9290916102b660628261094d565b5190208b5190815260ff91909116602082015261012435604082015261014435606082015281805260809060015afa1561035e5791610304610354949260209996945f51998a918786610b6b565b805f525f895261031960ff875f205416610998565b5f525f8852845f2060ff1981541690557fc506b8643b74e7a2fbb400c79e929dd5dfffb301fb07afb3b0e8e7c47925cf5a5f80a23390610c40565b5f805d5191168152f35b87513d5f823e3d90fd5b604190634e487b7160e01b5f525260245ffd5b8a6337ed32e85f52601cfd5b346100d157610395366108e0565b939190925f5c6103af5761015a955060015f5d33926109db565b856337ed32e85f52601cfd5b82346100d1575f3660031901126100d157602090517ff5f1e23b7a04036935e522ca1b86ed2ff65367d07d1717588e72789d34417a0b8152f35b82346100d157610180806003193601126100d15782359160243561041761083f565b92610420610855565b9460843561042c61086b565b95610435610881565b96610124359060ff821682036100d1575f5c61037b57996104799a60015f5d88515f60209d828f93848b91015283815261046e8161091d565b8c519182809261096f565b039060025afa15610629578a9695949392918c915f51978b51938401917f156f72eaee02d7fbc4958f8098121ff7f54147ee36221593e93067a7f187ce108352888d8601528b606086015260018060a01b039d8e809281808b169e8f60808b01521660a08901528a60c08901523360e0890152166101008701521661012085015260e4356101408501526101606101043581860152845283019183831067ffffffffffffffff8411176103685750818b528251902061190160f01b6101a084019081527f00000000000000000000000000000000000000000000000000000000000000006101a28501526101c290930152604281528c925f92909161057f60628261094d565b5190208a5190815260ff91909116602082015261014435604082015261016435606082015281805260809060015afa1561061f57610354959493926105ed7f5998dddc670a21d983a1c5e883050a483c96f4f95ef42a8825ddf63c29647af3938c935f519c8d918a89610b6b565b805f525f835261060260ff8a5f205416610998565b5f525f8252875f2060ff1981541690558751908152a23390610c40565b86513d5f823e3d90fd5b88513d5f823e3d90fd5b82346100d1575f3660031901126100d157602090517f156f72eaee02d7fbc4958f8098121ff7f54147ee36221593e93067a7f187ce108152f35b9050346100d15761067d366108e0565b9092945f9492945c6107345750906106b79160015f5d86515f602094828587809501528381526106ac8161091d565b8a519182809261096f565b039060025afa1561061f579061015a966106fa7f5998dddc670a21d983a1c5e883050a483c96f4f95ef42a8825ddf63c29647af394935f51963390898b8a610b6b565b805f525f845261070f60ff835f205416610998565b5f525f8352805f2060ff19815416905551908152a233906001600160a01b0316610c40565b6337ed32e85f52601cfd5b82346100d15760209061076061075436610897565b94939093929192610b6b565b9051908152f35b346100d157610775366108e0565b945f94919293945c61073457509361079691838561015a9760015f5d610b95565b33906001600160a01b0316610c40565b82346100d1575f3660031901126100d157602090517f00000000000000000000000000000000000000000000000000000000000000008152f35b82346100d1576020906107f561075436610897565b5f525f825260ff815f20541690519015158152f35b346100d15761081836610897565b945f9491949392935c6108335761015a965060015f5d6109db565b866337ed32e85f52601cfd5b604435906001600160a01b03821682036100d157565b606435906001600160a01b03821682036100d157565b60a435906001600160a01b03821682036100d157565b60c435906001600160a01b03821682036100d157565b60c09060031901126100d15760043590602435906001600160a01b0360443581811681036100d1579160643582811681036100d1579160843590811681036100d1579060a43590565b60a09060031901126100d15760043590602435906001600160a01b039060443582811681036100d1579160643590811681036100d1579060843590565b6040810190811067ffffffffffffffff82111761093957604052565b634e487b7160e01b5f52604160045260245ffd5b90601f8019910116810190811067ffffffffffffffff82111761093957604052565b908151915f5b838110610985575050015f815290565b8060208092840101518185015201610975565b1561099f57565b60405162461bcd60e51b815260206004820152601460248201527312151310ce881cddd85c081b9bdd08199bdd5b9960621b6044820152606490fd5b9492919093948415610b325742841115610aed576109fd848785858986610b6b565b95865f525f60205260409660ff885f205416610ab5577f6a731ec6b85b12ec3cf71a0bccb5cfb0ddd02a634e1922c7a713cdb1c8c662d3916060915f525f602052885f20600160ff1982541617905560018060a01b038091818b519716988988528a60208901528b88015216951693a48251916323b872dd60e01b602084015233602484015230604484015260648301526064825260a0820182811067ffffffffffffffff82111761093957610ab39352610c8c565b565b875162461bcd60e51b815260206004820152601160248201527048544c433a20737761702065786973747360781b6044820152606490fd5b60405162461bcd60e51b815260206004820152601760248201527f48544c433a2074696d656c6f636b20746f6f20736f6f6e0000000000000000006044820152606490fd5b60405162461bcd60e51b815260206004820152601160248201527012151310ce881e995c9bc8185b5bdd5b9d607a1b6044820152606490fd5b939160c0959391604051958652602086015260408501526060840152608083015260a08201522090565b93919290824210610bfb57610bac93339186610b6b565b805f525f602052610bc360ff60405f205416610998565b5f525f60205260405f2060ff1981541690557fc506b8643b74e7a2fbb400c79e929dd5dfffb301fb07afb3b0e8e7c47925cf5a5f80a2565b60405162461bcd60e51b815260206004820152601a60248201527f48544c433a2074696d656c6f636b206e6f7420657870697265640000000000006044820152606490fd5b60405163a9059cbb60e01b60208201526001600160a01b039092166024830152604480830193909352918152608081019167ffffffffffffffff83118284101761093957610ab3926040525b905f602091828151910182855af115610ce6575f513d610cdd57506001600160a01b0381163b155b610cbb5750565b604051635274afe760e01b81526001600160a01b039091166004820152602490fd5b60011415610cb4565b6040513d5f823e3d90fdfea2646970667358221220af39d62c2faaefcfd70507c0ff35906a8781cd8445bc2c78015ae20166fb9d5164736f6c63430008180033","linkReferences":{}},"methodIdentifiers":{"DOMAIN_SEPARATOR()":"3644e515","TYPEHASH_REDEEM()":"791d5159","TYPEHASH_REFUND()":"a9ab4d5b","VERSION()":"ffa1ad74","computeKey(bytes32,uint256,address,address,address,uint256)":"72043def","create(bytes32,uint256,address,address,address,uint256)":"06799dee","create(bytes32,uint256,address,address,uint256)":"b3fa9a13","isActive(bytes32,uint256,address,address,address,uint256)":"160c723c","redeem(bytes32,uint256,address,address,uint256)":"776211c1","redeemBySig(bytes32,uint256,address,address,uint256,address,address,uint256,bytes32,uint8,bytes32,bytes32)":"a2aa3de1","refund(bytes32,uint256,address,address,uint256)":"36504721","refund(bytes32,uint256,address,address,uint256,address)":"e8477ae8","refundBySig(bytes32,uint256,address,address,uint256,address,address,uint256,uint8,bytes32,bytes32)":"bb14f656","swaps(bytes32)":"eb84e7f2"},"id":54}